{
  "address": "0x3940ea9A2193262B1536a5AE44A275E698661e2d",
  "abi": [
    {
      "inputs": [],
      "stateMutability": "nonpayable",
      "type": "constructor"
    },
    {
      "inputs": [],
      "name": "EnforcedPause",
      "type": "error"
    },
    {
      "inputs": [],
      "name": "ExpectedPause",
      "type": "error"
    },
    {
      "inputs": [
        {
          "internalType": "address",
          "name": "owner",
          "type": "address"
        }
      ],
      "name": "OwnableInvalidOwner",
      "type": "error"
    },
    {
      "inputs": [
        {
          "internalType": "address",
          "name": "account",
          "type": "address"
        }
      ],
      "name": "OwnableUnauthorizedAccount",
      "type": "error"
    },
    {
      "inputs": [],
      "name": "ReentrancyGuardReentrantCall",
      "type": "error"
    },
    {
      "anonymous": false,
      "inputs": [
        {
          "indexed": true,
          "internalType": "address",
          "name": "player",
          "type": "address"
        },
        {
          "indexed": false,
          "internalType": "uint256",
          "name": "moveCount",
          "type": "uint256"
        },
        {
          "indexed": false,
          "internalType": "bytes32",
          "name": "stateHash",
          "type": "bytes32"
        }
      ],
      "name": "BatchMoveProcessed",
      "type": "event"
    },
    {
      "anonymous": false,
      "inputs": [
        {
          "indexed": true,
          "internalType": "address",
          "name": "player",
          "type": "address"
        },
        {
          "indexed": false,
          "internalType": "uint8",
          "name": "x",
          "type": "uint8"
        },
        {
          "indexed": false,
          "internalType": "uint8",
          "name": "y",
          "type": "uint8"
        },
        {
          "indexed": false,
          "internalType": "uint8",
          "name": "adjacentMines",
          "type": "uint8"
        },
        {
          "indexed": false,
          "internalType": "bytes32",
          "name": "stateHash",
          "type": "bytes32"
        },
        {
          "indexed": false,
          "internalType": "uint256",
          "name": "moveCount",
          "type": "uint256"
        }
      ],
      "name": "CellRevealed",
      "type": "event"
    },
    {
      "anonymous": false,
      "inputs": [
        {
          "indexed": true,
          "internalType": "address",
          "name": "player",
          "type": "address"
        },
        {
          "indexed": false,
          "internalType": "bool",
          "name": "won",
          "type": "bool"
        },
        {
          "indexed": false,
          "internalType": "uint256",
          "name": "score",
          "type": "uint256"
        },
        {
          "indexed": false,
          "internalType": "uint256",
          "name": "timeSpent",
          "type": "uint256"
        }
      ],
      "name": "GameOver",
      "type": "event"
    },
    {
      "anonymous": false,
      "inputs": [
        {
          "indexed": true,
          "internalType": "address",
          "name": "player",
          "type": "address"
        },
        {
          "indexed": false,
          "internalType": "bytes32",
          "name": "boardHash",
          "type": "bytes32"
        },
        {
          "indexed": false,
          "internalType": "uint8",
          "name": "mineCount",
          "type": "uint8"
        },
        {
          "indexed": false,
          "internalType": "uint256",
          "name": "timestamp",
          "type": "uint256"
        }
      ],
      "name": "GameStarted",
      "type": "event"
    },
    {
      "anonymous": false,
      "inputs": [
        {
          "indexed": true,
          "internalType": "address",
          "name": "player",
          "type": "address"
        },
        {
          "indexed": false,
          "internalType": "uint256",
          "name": "rank",
          "type": "uint256"
        },
        {
          "indexed": false,
          "internalType": "uint256",
          "name": "score",
          "type": "uint256"
        }
      ],
      "name": "NFTMintEligible",
      "type": "event"
    },
    {
      "anonymous": false,
      "inputs": [
        {
          "indexed": true,
          "internalType": "address",
          "name": "previousOwner",
          "type": "address"
        },
        {
          "indexed": true,
          "internalType": "address",
          "name": "newOwner",
          "type": "address"
        }
      ],
      "name": "OwnershipTransferred",
      "type": "event"
    },
    {
      "anonymous": false,
      "inputs": [
        {
          "indexed": false,
          "internalType": "address",
          "name": "account",
          "type": "address"
        }
      ],
      "name": "Paused",
      "type": "event"
    },
    {
      "anonymous": false,
      "inputs": [
        {
          "indexed": true,
          "internalType": "address",
          "name": "player",
          "type": "address"
        }
      ],
      "name": "SessionClosed",
      "type": "event"
    },
    {
      "anonymous": false,
      "inputs": [
        {
          "indexed": true,
          "internalType": "address",
          "name": "player",
          "type": "address"
        },
        {
          "indexed": false,
          "internalType": "uint256",
          "name": "expiryTime",
          "type": "uint256"
        },
        {
          "indexed": false,
          "internalType": "bytes32",
          "name": "nonce",
          "type": "bytes32"
        }
      ],
      "name": "SessionCreated",
      "type": "event"
    },
    {
      "anonymous": false,
      "inputs": [
        {
          "indexed": false,
          "internalType": "address",
          "name": "account",
          "type": "address"
        }
      ],
      "name": "Unpaused",
      "type": "event"
    },
    {
      "inputs": [],
      "name": "HEIGHT",
      "outputs": [
        {
          "internalType": "uint8",
          "name": "",
          "type": "uint8"
        }
      ],
      "stateMutability": "view",
      "type": "function"
    },
    {
      "inputs": [],
      "name": "MAX_GAS_PER_TX",
      "outputs": [
        {
          "internalType": "uint256",
          "name": "",
          "type": "uint256"
        }
      ],
      "stateMutability": "view",
      "type": "function"
    },
    {
      "inputs": [],
      "name": "SESSION_DURATION",
      "outputs": [
        {
          "internalType": "uint256",
          "name": "",
          "type": "uint256"
        }
      ],
      "stateMutability": "view",
      "type": "function"
    },
    {
      "inputs": [],
      "name": "WIDTH",
      "outputs": [
        {
          "internalType": "uint8",
          "name": "",
          "type": "uint8"
        }
      ],
      "stateMutability": "view",
      "type": "function"
    },
    {
      "inputs": [],
      "name": "closeSession",
      "outputs": [],
      "stateMutability": "nonpayable",
      "type": "function"
    },
    {
      "inputs": [],
      "name": "createSession",
      "outputs": [],
      "stateMutability": "nonpayable",
      "type": "function"
    },
    {
      "inputs": [
        {
          "internalType": "address",
          "name": "",
          "type": "address"
        }
      ],
      "name": "games",
      "outputs": [
        {
          "internalType": "bytes32",
          "name": "boardHash",
          "type": "bytes32"
        },
        {
          "internalType": "uint256",
          "name": "revealedMask",
          "type": "uint256"
        },
        {
          "internalType": "uint256",
          "name": "startTime",
          "type": "uint256"
        },
        {
          "internalType": "bool",
          "name": "isOver",
          "type": "bool"
        },
        {
          "internalType": "bool",
          "name": "isStarted",
          "type": "bool"
        },
        {
          "internalType": "uint256",
          "name": "score",
          "type": "uint256"
        },
        {
          "internalType": "bytes32",
          "name": "stateHash",
          "type": "bytes32"
        },
        {
          "internalType": "uint256",
          "name": "moveCount",
          "type": "uint256"
        },
        {
          "internalType": "uint8",
          "name": "mineCount",
          "type": "uint8"
        },
        {
          "internalType": "uint256",
          "name": "startBlock",
          "type": "uint256"
        },
        {
          "internalType": "bool",
          "name": "hasWon",
          "type": "bool"
        }
      ],
      "stateMutability": "view",
      "type": "function"
    },
    {
      "inputs": [],
      "name": "getPlayers",
      "outputs": [
        {
          "internalType": "address[]",
          "name": "",
          "type": "address[]"
        }
      ],
      "stateMutability": "view",
      "type": "function"
    },
    {
      "inputs": [
        {
          "internalType": "address[]",
          "name": "_players",
          "type": "address[]"
        }
      ],
      "name": "getScores",
      "outputs": [
        {
          "internalType": "uint256[]",
          "name": "",
          "type": "uint256[]"
        }
      ],
      "stateMutability": "view",
      "type": "function"
    },
    {
      "inputs": [
        {
          "internalType": "address",
          "name": "player",
          "type": "address"
        }
      ],
      "name": "getSession",
      "outputs": [
        {
          "internalType": "address",
          "name": "sessionPlayer",
          "type": "address"
        },
        {
          "internalType": "uint256",
          "name": "expiryTime",
          "type": "uint256"
        },
        {
          "internalType": "bytes32",
          "name": "nonce",
          "type": "bytes32"
        },
        {
          "internalType": "bytes32",
          "name": "lastHash",
          "type": "bytes32"
        },
        {
          "internalType": "uint256",
          "name": "lastActionTime",
          "type": "uint256"
        }
      ],
      "stateMutability": "view",
      "type": "function"
    },
    {
      "inputs": [
        {
          "internalType": "address",
          "name": "",
          "type": "address"
        }
      ],
      "name": "highScores",
      "outputs": [
        {
          "internalType": "uint256",
          "name": "",
          "type": "uint256"
        }
      ],
      "stateMutability": "view",
      "type": "function"
    },
    {
      "inputs": [
        {
          "internalType": "address",
          "name": "",
          "type": "address"
        }
      ],
      "name": "isPlayer",
      "outputs": [
        {
          "internalType": "bool",
          "name": "",
          "type": "bool"
        }
      ],
      "stateMutability": "view",
      "type": "function"
    },
    {
      "inputs": [],
      "name": "nftContract",
      "outputs": [
        {
          "internalType": "address",
          "name": "",
          "type": "address"
        }
      ],
      "stateMutability": "view",
      "type": "function"
    },
    {
      "inputs": [],
      "name": "owner",
      "outputs": [
        {
          "internalType": "address",
          "name": "",
          "type": "address"
        }
      ],
      "stateMutability": "view",
      "type": "function"
    },
    {
      "inputs": [],
      "name": "pause",
      "outputs": [],
      "stateMutability": "nonpayable",
      "type": "function"
    },
    {
      "inputs": [],
      "name": "paused",
      "outputs": [
        {
          "internalType": "bool",
          "name": "",
          "type": "bool"
        }
      ],
      "stateMutability": "view",
      "type": "function"
    },
    {
      "inputs": [
        {
          "internalType": "address",
          "name": "",
          "type": "address"
        }
      ],
      "name": "playerGames",
      "outputs": [
        {
          "internalType": "uint256",
          "name": "",
          "type": "uint256"
        }
      ],
      "stateMutability": "view",
      "type": "function"
    },
    {
      "inputs": [
        {
          "internalType": "uint256",
          "name": "",
          "type": "uint256"
        }
      ],
      "name": "players",
      "outputs": [
        {
          "internalType": "address",
          "name": "",
          "type": "address"
        }
      ],
      "stateMutability": "view",
      "type": "function"
    },
    {
      "inputs": [
        {
          "components": [
            {
              "internalType": "uint8",
              "name": "x",
              "type": "uint8"
            },
            {
              "internalType": "uint8",
              "name": "y",
              "type": "uint8"
            }
          ],
          "internalType": "struct Minesweeper.Move[]",
          "name": "moves",
          "type": "tuple[]"
        }
      ],
      "name": "processBatchMoves",
      "outputs": [],
      "stateMutability": "nonpayable",
      "type": "function"
    },
    {
      "inputs": [],
      "name": "renounceOwnership",
      "outputs": [],
      "stateMutability": "nonpayable",
      "type": "function"
    },
    {
      "inputs": [
        {
          "internalType": "address",
          "name": "",
          "type": "address"
        }
      ],
      "name": "sessions",
      "outputs": [
        {
          "internalType": "address",
          "name": "player",
          "type": "address"
        },
        {
          "internalType": "uint256",
          "name": "expiryTime",
          "type": "uint256"
        },
        {
          "internalType": "bytes32",
          "name": "nonce",
          "type": "bytes32"
        },
        {
          "internalType": "bytes32",
          "name": "lastHash",
          "type": "bytes32"
        },
        {
          "internalType": "uint256",
          "name": "lastActionTime",
          "type": "uint256"
        }
      ],
      "stateMutability": "view",
      "type": "function"
    },
    {
      "inputs": [
        {
          "internalType": "address",
          "name": "_nftContract",
          "type": "address"
        }
      ],
      "name": "setNFTContract",
      "outputs": [],
      "stateMutability": "nonpayable",
      "type": "function"
    },
    {
      "inputs": [
        {
          "internalType": "bytes32",
          "name": "salt",
          "type": "bytes32"
        }
      ],
      "name": "startNewGame",
      "outputs": [],
      "stateMutability": "nonpayable",
      "type": "function"
    },
    {
      "inputs": [
        {
          "internalType": "address",
          "name": "newOwner",
          "type": "address"
        }
      ],
      "name": "transferOwnership",
      "outputs": [],
      "stateMutability": "nonpayable",
      "type": "function"
    },
    {
      "inputs": [],
      "name": "unpause",
      "outputs": [],
      "stateMutability": "nonpayable",
      "type": "function"
    },
    {
      "inputs": [],
      "name": "withdraw",
      "outputs": [],
      "stateMutability": "nonpayable",
      "type": "function"
    },
    {
      "stateMutability": "payable",
      "type": "receive"
    }
  ],
  "transactionHash": "0xba1a2de017daa28c1e68df602febdc7f40fda7fc9d98d7f86d55751229e980a3",
  "args": [],
  "numDeployments": 1,
  "solcInputHash": "319c9deef3a56d168124ab61efc2c004",
  "bytecode": "0x608060405234801561001057600080fd5b5060016000819055805460ff19169055338061004657604051631e4fbdf760e01b81526000600482015260240160405180910390fd5b61004f81610055565b506100af565b600180546001600160a01b03838116610100818102610100600160a81b031985161790945560405193909204169182907f8be0079c531659141344cd1fd0a4f28419497f9722a3daafe3b4186f6b6457e090600090a35050565b61267d80620000bf6000396000f3fe6080604052600436106101845760003560e01c806379131a19116100d1578063d44d33941161008a578063f2fde38b11610064578063f2fde38b14610601578063f6c97ed114610621578063f71d96cb1461064e578063ff5e21861461066e57600080fd5b8063d44d3394146103bc578063d56d229d146105ca578063d8766749146105ea57600080fd5b806379131a19146104185780638456cb59146104e85780638b5b9ccc146104fd5780638c8e13b91461051f5780638da5cb5b14610573578063a7ccabdf146105aa57600080fd5b80633f4ba83a1161013e5780635c975abb116101185780635c975abb146103a457806369ea80d5146103bc5780636a47ab99146103e3578063715018a61461040357600080fd5b80633f4ba83a146102db57806340056505146102f0578063431a1b971461031d57600080fd5b8062d8e1041461020657806306f4bcbf1461024657806309c95e101461025b5780631cbf1b021461029b5780633ccfd60b146102b05780633deaa341146102c557600080fd5b366102015760015461010090046001600160a01b03166001600160a01b0316336001600160a01b0316146101ff5760405162461bcd60e51b815260206004820181905260248201527f4f6e6c79206f776e65722063616e2073656e6420455448206469726563746c7960448201526064015b60405180910390fd5b005b600080fd5b34801561021257600080fd5b506102336102213660046120b8565b60056020526000908152604090205481565b6040519081526020015b60405180910390f35b34801561025257600080fd5b506101ff61068e565b34801561026757600080fd5b5061028b6102763660046120b8565b60076020526000908152604090205460ff1681565b604051901515815260200161023d565b3480156102a757600080fd5b506101ff610760565b3480156102bc57600080fd5b506101ff6108ab565b3480156102d157600080fd5b50610233610e1081565b3480156102e757600080fd5b506101ff610952565b3480156102fc57600080fd5b5061023361030b3660046120b8565b60046020526000908152604090205481565b34801561032957600080fd5b506103726103383660046120b8565b6003602081905260009182526040909120805460018201546002830154938301546004909301546001600160a01b03909216939092909185565b604080516001600160a01b0390961686526020860194909452928401919091526060830152608082015260a00161023d565b3480156103b057600080fd5b5060015460ff1661028b565b3480156103c857600080fd5b506103d1601081565b60405160ff909116815260200161023d565b3480156103ef57600080fd5b506101ff6103fe3660046120e1565b610962565b34801561040f57600080fd5b506101ff610d12565b34801561042457600080fd5b506104906104333660046120b8565b60026020819052600091825260409091208054600182015492820154600383015460048401546005850154600686015460078701546008880154600990980154969897959660ff808716976101009097048116969281169291168b565b604080519b8c5260208c019a909a52988a01979097529415156060890152921515608088015260a087019190915260c086015260e085015260ff1661010084015261012083015215156101408201526101600161023d565b3480156104f457600080fd5b506101ff610d24565b34801561050957600080fd5b50610512610d34565b60405161023d9190612156565b34801561052b57600080fd5b5061037261053a3660046120b8565b6001600160a01b039081166000908152600360208190526040909120805460018201546002830154938301546004909301549190941694565b34801561057f57600080fd5b5060015461010090046001600160a01b03165b6040516001600160a01b03909116815260200161023d565b3480156105b657600080fd5b506101ff6105c53660046120b8565b610d96565b3480156105d657600080fd5b50600854610592906001600160a01b031681565b3480156105f657600080fd5b506102336207a12081565b34801561060d57600080fd5b506101ff61061c3660046120b8565b610dc0565b34801561062d57600080fd5b5061064161063c3660046121a3565b610dfb565b60405161023d9190612206565b34801561065a57600080fd5b5061059261066936600461223e565b610ed4565b34801561067a57600080fd5b506101ff61068936600461223e565b610efe565b610696611149565b61069e611173565b33600090815260036020526040902060018101546106f25760405162461bcd60e51b815260206004820152601160248201527027379030b1ba34bb329039b2b9b9b4b7b760791b60448201526064016101f6565b33600081815260036020819052604080832080546001600160a01b031916815560018101849055600281018490559182018390556004909101829055517f445d1880d87ae8f03e4beb24378fe80916c5f695953ca2305278e105b86e1cf09190a25061075e6001600055565b565b610768611173565b6040516bffffffffffffffffffffffff193360601b16602082015242603482015243605482015244607482015260009060940160408051601f19818403018152828252805160209182012060a0840190925233835290925081016107ce610e104261226d565b8152602001828152602001826040516020016107ec91815260200190565b60408051808303601f190181529181528151602092830120835242928201839052336000818152600380855290839020865181546001600160a01b0319166001600160a01b039091161781559386015160018501559185015160028401556060850151918301919091556080909301516004909101557f9ed7cbfbeeb24667a343bbec5a0f72aaf4a09e5cda26cceed7edb57c4dfb78849061089190610e109061226d565b60408051918252602082018590520160405180910390a250565b6108b3611197565b60015460405160009161010090046001600160a01b03169047908381818185875af1925050503d8060008114610905576040519150601f19603f3d011682016040523d82523d6000602084013e61090a565b606091505b505090508061094f5760405162461bcd60e51b815260206004820152601160248201527015da5d1a191c985dd85b0819985a5b1959607a1b60448201526064016101f6565b50565b61095a611197565b61075e6111ca565b61096a611173565b610972611149565b336000908152600360205260409020600181015442106109c65760405162461bcd60e51b815260206004820152600f60248201526e14d95cdcda5bdb88195e1c1a5c9959608a1b60448201526064016101f6565b81610a075760405162461bcd60e51b8152602060048201526011602482015270139bc81b5bdd995cc81c1c9bdd9a591959607a1b60448201526064016101f6565b6014821115610a4a5760405162461bcd60e51b815260206004820152600f60248201526e426174636820746f6f206c6172676560881b60448201526064016101f6565b60008267ffffffffffffffff811115610a6557610a65612280565b604051908082528060200260200182016040528015610a8e578160200160208202803683370190505b50905060008367ffffffffffffffff811115610aac57610aac612280565b604051908082528060200260200182016040528015610ad5578160200160208202803683370190505b50905060005b84811015610b9157858582818110610af557610af5612296565b610b0b92602060409092020190810191506122ac565b838281518110610b1d57610b1d612296565b602002602001019060ff16908160ff1681525050858582818110610b4357610b43612296565b9050604002016020016020810190610b5b91906122ac565b828281518110610b6d57610b6d612296565b60ff9092166020928302919091019091015280610b89816122cf565b915050610adb565b50600033838386600201548760030154604051602001610bb5959493929190612326565b60408051601f1981840301815291815281516020928301203360009081526002909352912060038101549192509060ff1615610c225760405162461bcd60e51b815260206004820152600c60248201526b23b0b6b29034b99037bb32b960a11b60448201526064016101f6565b60005b86811015610ca657610c8833898984818110610c4357610c43612296565b610c5992602060409092020190810191506122ac565b8a8a85818110610c6b57610c6b612296565b9050604002016020016020810190610c8391906122ac565b61121c565b600382015460ff16610ca65780610c9e816122cf565b915050610c25565b50600385018290554260048601556006810154600582015460405133927ffecbea6c66afe05229d10d8a4cca8f23bf4339a5bda344e293effcf41d8582cb92610cf792918252602082015260400190565b60405180910390a25050505050610d0e6001600055565b5050565b610d1a611197565b61075e6000611446565b610d2c611197565b61075e6114a0565b60606006805480602002602001604051908101604052809291908181526020018280548015610d8c57602002820191906000526020600020905b81546001600160a01b03168152600190910190602001808311610d6e575b5050505050905090565b610d9e611197565b600880546001600160a01b0319166001600160a01b0392909216919091179055565b610dc8611197565b6001600160a01b038116610df257604051631e4fbdf760e01b8152600060048201526024016101f6565b61094f81611446565b606060008267ffffffffffffffff811115610e1857610e18612280565b604051908082528060200260200182016040528015610e41578160200160208202803683370190505b50905060005b83811015610eca5760056000868684818110610e6557610e65612296565b9050602002016020810190610e7a91906120b8565b6001600160a01b03166001600160a01b0316815260200190815260200160002054828281518110610ead57610ead612296565b602090810291909101015280610ec2816122cf565b915050610e47565b5090505b92915050565b60068181548110610ee457600080fd5b6000918252602090912001546001600160a01b0316905081565b610f06611173565b336000908152600360205260409020600101544210610f595760405162461bcd60e51b815260206004820152600f60248201526e14d95cdcda5bdb88195e1c1a5c9959608a1b60448201526064016101f6565b6040805142602080830191909152438284015244606083015260808083018590528351808403909101815260a090920190925280519101206000610f9c826114db565b90506040518061016001604052808381526020016000815260200142815260200160001515815260200160011515815260200160008152602001838152602001600081526020018260ff1681526020014381526020016000151581525060026000336001600160a01b03166001600160a01b0316815260200190815260200160002060008201518160000155602082015181600101556040820151816002015560608201518160030160006101000a81548160ff02191690831515021790555060808201518160030160016101000a81548160ff02191690831515021790555060a0820151816004015560c0820151816005015560e082015181600601556101008201518160070160006101000a81548160ff021916908360ff16021790555061012082015181600801556101408201518160090160006101000a81548160ff021916908315150217905550905050336001600160a01b03167f2b53767824e6e45390f22ddad635f4ce1603ec6e4a01c66384b8b024ed4cb21c83834260405161113c9392919092835260ff919091166020830152604082015260600190565b60405180910390a2505050565b60026000540361116c57604051633ee5aeb560e01b815260040160405180910390fd5b6002600055565b60015460ff161561075e5760405163d93c066560e01b815260040160405180910390fd5b6001546001600160a01b0361010090910416331461075e5760405163118cdaa760e01b81523360048201526024016101f6565b6111d2611545565b6001805460ff191690557f5db9ee0a495bf2e6ff9c91a7834c1ba4fdd244a5e8aa4e537bd38aeae4b073aa335b6040516001600160a01b03909116815260200160405180910390a1565b6001600160a01b0383166000908152600260205260409020600381015460ff16156112785760405162461bcd60e51b815260206004820152600c60248201526b23b0b6b29034b99037bb32b960a11b60448201526064016101f6565b601060ff841610801561128e5750601060ff8316105b6112d05760405162461bcd60e51b8152602060048201526013602482015272496e76616c696420636f6f7264696e6174657360681b60448201526064016101f6565b6112db818484611568565b6112e481611814565b156114405760038101805460098301805460ff1916600190811790915561ffff1990911617905561131481611876565b600482018190556001600160a01b03851660009081526005602052604090205410156113dd5760048101546001600160a01b03851660009081526005602090815260408083209390935560079052205460ff166113cf576006805460018082019092557ff652222313e28459528d920b65115c16c04f3efc82aaedc97be59f3f377c0d3f0180546001600160a01b0319166001600160a01b0387169081179091556000908152600760205260409020805460ff191690911790555b6113dd848260040154611921565b836001600160a01b03167fcf6989f889acf97d11e9f4362a12d67538c2372e5260383f66450fbd27d4424b6001836004015484600201544261141f9190612371565b60408051931515845260208401929092529082015260600160405180910390a25b50505050565b600180546001600160a01b03838116610100818102610100600160a81b031985161790945560405193909204169182907f8be0079c531659141344cd1fd0a4f28419497f9722a3daafe3b4186f6b6457e090600090a35050565b6114a8611173565b6001805460ff1916811790557f62e78cea01bee320cd4e420270b5ea74000d11b0c9f74754ebdbfc544b05a258336111ff565b600080805b601060ff8216101561153e5760005b601060ff8216101561152b57611506858383611c43565b15611519578261151581612384565b9350505b8061152381612384565b9150506114ef565b508061153681612384565b9150506114e0565b5092915050565b60015460ff1661075e57604051638dfc202b60e01b815260040160405180910390fd5b600060ff8084169061157e9060109085166123a3565b611588919061226d565b90506115b3604051806060016040528060238152602001612517602391398460ff168460ff16611cbd565b60018481015490821b16156115eb576114406040518060600160405280602e81526020016125f5602e91398460ff168460ff16611cbd565b60006115f8858585611d09565b90506116246040518060600160405280603081526020016125c5603091398560ff168560ff1684611ef7565b8061165957611652604051806060016040528060338152602001612592603391398560ff168560ff16611cbd565b5050505050565b611682604051806060016040528060318152602001612561603191398560ff168560ff16611cbd565b6000195b60018160000b1361180c576000195b60018160000b136117f9578160000b60001480156116b657508060000b6000145b6117e75760008260000b1280156116da575060ff86166116d5836123ba565b60ff16115b6117e75760008160000b1280156116fe575060ff85166116f9826123ba565b60ff16115b6117e75760008260000b138015611725575061171b8260106123d8565b60ff168660ff1610155b6117e75760008160000b13801561174c57506117428160106123d8565b60ff168560ff1610155b6117e7576000808360000b1261176b5761176683886123f1565b61177e565b611774836123ba565b61177e90886123d8565b90506000808360000b1261179b5761179683886123f1565b6117ae565b6117a4836123ba565b6117ae90886123d8565b90506117d960405180606001604052806027815260200161253a602791398360ff168360ff16611cbd565b6117e4898383611568565b50505b806117f18161240a565b915050611695565b50806118048161240a565b915050611686565b505050505050565b600181015460009081905b801561184457600181161561183c5781611838816122cf565b9250505b60011c61181f565b60006118516010806123a3565b60078601549091506000906118699060ff1683612371565b9390931495945050505050565b6000808260020154426118899190612371565b9050606460f08210156118bd576118a18260f0612371565b6118ac9060026123a3565b6118b6908261226d565b905061191a565b61012c8210156118de576118d38261012c612371565b6118ac9060016123a3565b61012c821180156118f0575061019082105b156119165761190161012c83612371565b61190c9060016123a3565b6118b69082612371565b5060005b9392505050565b60408051600a80825261016082019092526000916020820161014080368337505060408051600a80825261016082019092529293506000929150602082016101408036833701905050905060005b600654811015611b3f576000600560006006848154811061199257611992612296565b60009182526020808320909101546001600160a01b0316835282019290925260400181205491505b600a811015611b2a578481815181106119d5576119d5612296565b6020026020010151821115611b185760095b81811115611a9057856119fb600183612371565b81518110611a0b57611a0b612296565b6020026020010151868281518110611a2557611a25612296565b602090810291909101015284611a3c600183612371565b81518110611a4c57611a4c612296565b6020026020010151858281518110611a6657611a66612296565b6001600160a01b039092166020928302919091019091015280611a8881612420565b9150506119e7565b5081858281518110611aa457611aa4612296565b60200260200101818152505060068381548110611ac357611ac3612296565b9060005260206000200160009054906101000a90046001600160a01b0316848281518110611af357611af3612296565b60200260200101906001600160a01b031690816001600160a01b031681525050611b2a565b80611b22816122cf565b9150506119ba565b50508080611b37906122cf565b91505061196f565b5060005b600a81101561165257846001600160a01b0316828281518110611b6857611b68612296565b60200260200101516001600160a01b031603611c3157600854604051631c0ef40760e31b81526001600160a01b0387811660048301529091169063e077a03890602401600060405180830381600087803b158015611bc557600080fd5b505af1158015611bd9573d6000803e3d6000fd5b50505050846001600160a01b03167f27da45e92227e0d8e0b261c010c5e0356f533df255822fa0778386e090b70a60826001611c15919061226d565b60408051918252602082018890520160405180910390a2611652565b80611c3b816122cf565b915050611b43565b600080848484604051602001611c7d9392919092835260f891821b6001600160f81b03199081166020850152911b16602182015260220190565b60408051601f19818403018152919052805160209091012090506000611ca46010806123a3565b90506028611cb28284612437565b109695505050505050565b611d04838383604051602401611cd59392919061249f565b60408051601f198184030181529190526020810180516001600160e01b031663ca47c4eb60e01b179052611f3c565b505050565b60008060ff80851690611d209060109086166123a3565b611d2a919061226d565b90506101008110611d725760405162461bcd60e51b815260206004820152601260248201527142697420696e646578206f766572666c6f7760701b60448201526064016101f6565b60018581015490821b1615611d8b57600091505061191a565b6001858101805491831b9091179055600685018054906000611dac836122cf565b90915550508454611dbe908585611c43565b611e79576000611dd386600001548686611f45565b60018701546006880154604051929350611df892602001918252602082015260400190565b60408051601f19818403018152828252805160209182012060058a0181905560068a015460ff8a811686528981169386019390935291851684840152606084015260808301525133917ffc9760811016935f98fe7f4b510639a8adfd1df7d6e5fcee0c0ac37b76c8605e919081900360a00190a260ff1615915061191a9050565b60038501805460098701805460ff1916905561ffff19166001179055600285015433907fcf6989f889acf97d11e9f4362a12d67538c2372e5260383f66450fbd27d4424b906000908190611ecd9042612371565b60408051931515845260208401929092529082015260600160405180910390a2600091505061191a565b61144084848484604051602401611f1194939291906124c4565b60408051601f198184030181529190526020810180516001600160e01b0316633b136dc960e11b1790525b61094f81612097565b6000806000195b60018160000b1361208e576000195b60018160000b1361207b578160000b6000148015611f7c57508060000b6000145b612069576000611f8c83886124f5565b90506000611f9a83886124f5565b905060008260000b12158015611fb457506010600083900b125b8015611fc4575060008160000b12155b8015611fd457506010600082900b125b1561206657612002604051806060016040528060258152602001612623602591398360ff168360ff16611cbd565b61200d898383611c43565b15612066576120586040518060400160405280601a81526020017f466f756e64206d696e6520617420783a2025732c20793a2025730000000000008152508360ff168360ff16611cbd565b8461206281612384565b9550505b50505b806120738161240a565b915050611f5b565b50806120868161240a565b915050611f4c565b50949350505050565b60006a636f6e736f6c652e6c6f679050600080835160208501845afa505050565b6000602082840312156120ca57600080fd5b81356001600160a01b038116811461191a57600080fd5b600080602083850312156120f457600080fd5b823567ffffffffffffffff8082111561210c57600080fd5b818501915085601f83011261212057600080fd5b81358181111561212f57600080fd5b8660208260061b850101111561214457600080fd5b60209290920196919550909350505050565b6020808252825182820181905260009190848201906040850190845b818110156121975783516001600160a01b031683529284019291840191600101612172565b50909695505050505050565b600080602083850312156121b657600080fd5b823567ffffffffffffffff808211156121ce57600080fd5b818501915085601f8301126121e257600080fd5b8135818111156121f157600080fd5b8660208260051b850101111561214457600080fd5b6020808252825182820181905260009190848201906040850190845b8181101561219757835183529284019291840191600101612222565b60006020828403121561225057600080fd5b5035919050565b634e487b7160e01b600052601160045260246000fd5b80820180821115610ece57610ece612257565b634e487b7160e01b600052604160045260246000fd5b634e487b7160e01b600052603260045260246000fd5b6000602082840312156122be57600080fd5b813560ff8116811461191a57600080fd5b6000600182016122e1576122e1612257565b5060010190565b600081518084526020808501945080840160005b8381101561231b57815160ff16875295820195908201906001016122fc565b509495945050505050565b6001600160a01b038616815260a06020820181905260009061234a908301876122e8565b828103604084015261235c81876122e8565b60608401959095525050608001529392505050565b81810381811115610ece57610ece612257565b600060ff821660ff810361239a5761239a612257565b60010192915050565b8082028115828204841417610ece57610ece612257565b600081810b608081016123cf576123cf612257565b60000392915050565b60ff8281168282160390811115610ece57610ece612257565b60ff8181168382160190811115610ece57610ece612257565b60008160000b607f810361239a5761239a612257565b60008161242f5761242f612257565b506000190190565b60008261245457634e487b7160e01b600052601260045260246000fd5b500690565b6000815180845260005b8181101561247f57602081850181015186830182015201612463565b506000602082860101526020601f19601f83011685010191505092915050565b6060815260006124b26060830186612459565b60208301949094525060400152919050565b6080815260006124d76080830187612459565b60208301959095525060408101929092521515606090910152919050565b600081810b9083900b01607f8113607f1982121715610ece57610ece61225756fe5f72657665616c417265612063616c6c656420666f7220783a2025732c20793a202573526563757273696e6720746f2061646a6163656e742063656c6c20783a2025732c20793a2025735374617274696e6720746f20636865636b2061646a6163656e742063656c6c7320666f7220783a2025732c20793a2025734e6f7420616e20656d7074792063656c6c2c2073746f7070696e6720726563757273696f6e2e20783a2025732c20793a2025735f72657665616c43656c6c20726573756c7420666f7220783a2025732c20793a2025732c206973456d7074793a20257343656c6c20616c72656164792072657665616c65642c2072657475726e696e672e20783a2025732c20793a202573436865636b696e672061646a6163656e742063656c6c202d20783a2025732c20793a202573a2646970667358221220d5c1f2516070501713263ddf64cc328b7271dc0b0ebb40068cdad69119e9f37b64736f6c63430008140033",
  "devdoc": {
    "errors": {
      "EnforcedPause()": [
        {
          "details": "The operation failed because the contract is paused."
        }
      ],
      "ExpectedPause()": [
        {
          "details": "The operation failed because the contract is not paused."
        }
      ],
      "OwnableInvalidOwner(address)": [
        {
          "details": "The owner is not a valid owner account. (eg. `address(0)`)"
        }
      ],
      "OwnableUnauthorizedAccount(address)": [
        {
          "details": "The caller account is not authorized to perform an operation."
        }
      ],
      "ReentrancyGuardReentrantCall()": [
        {
          "details": "Unauthorized reentrant call."
        }
      ]
    },
    "events": {
      "Paused(address)": {
        "details": "Emitted when the pause is triggered by `account`."
      },
      "Unpaused(address)": {
        "details": "Emitted when the pause is lifted by `account`."
      }
    },
    "kind": "dev",
    "methods": {
      "owner()": {
        "details": "Returns the address of the current owner."
      },
      "paused()": {
        "details": "Returns true if the contract is paused, and false otherwise."
      },
      "renounceOwnership()": {
        "details": "Leaves the contract without owner. It will not be possible to call `onlyOwner` functions. Can only be called by the current owner. NOTE: Renouncing ownership will leave the contract without an owner, thereby disabling any functionality that is only available to the owner."
      },
      "transferOwnership(address)": {
        "details": "Transfers ownership of the contract to a new account (`newOwner`). Can only be called by the current owner."
      }
    },
    "version": 1
  },
  "userdoc": {
    "kind": "user",
    "methods": {},
    "version": 1
  },
  "storageLayout": {
    "storage": [
      {
        "astId": 305,
        "contract": "contracts/Minesweeper.sol:Minesweeper",
        "label": "_status",
        "offset": 0,
        "slot": "0",
        "type": "t_uint256"
      },
      {
        "astId": 186,
        "contract": "contracts/Minesweeper.sol:Minesweeper",
        "label": "_paused",
        "offset": 0,
        "slot": "1",
        "type": "t_bool"
      },
      {
        "astId": 8,
        "contract": "contracts/Minesweeper.sol:Minesweeper",
        "label": "_owner",
        "offset": 1,
        "slot": "1",
        "type": "t_address"
      },
      {
        "astId": 441,
        "contract": "contracts/Minesweeper.sol:Minesweeper",
        "label": "games",
        "offset": 0,
        "slot": "2",
        "type": "t_mapping(t_address,t_struct(Game)425_storage)"
      },
      {
        "astId": 446,
        "contract": "contracts/Minesweeper.sol:Minesweeper",
        "label": "sessions",
        "offset": 0,
        "slot": "3",
        "type": "t_mapping(t_address,t_struct(Session)436_storage)"
      },
      {
        "astId": 450,
        "contract": "contracts/Minesweeper.sol:Minesweeper",
        "label": "playerGames",
        "offset": 0,
        "slot": "4",
        "type": "t_mapping(t_address,t_uint256)"
      },
      {
        "astId": 454,
        "contract": "contracts/Minesweeper.sol:Minesweeper",
        "label": "highScores",
        "offset": 0,
        "slot": "5",
        "type": "t_mapping(t_address,t_uint256)"
      },
      {
        "astId": 457,
        "contract": "contracts/Minesweeper.sol:Minesweeper",
        "label": "players",
        "offset": 0,
        "slot": "6",
        "type": "t_array(t_address)dyn_storage"
      },
      {
        "astId": 461,
        "contract": "contracts/Minesweeper.sol:Minesweeper",
        "label": "isPlayer",
        "offset": 0,
        "slot": "7",
        "type": "t_mapping(t_address,t_bool)"
      },
      {
        "astId": 525,
        "contract": "contracts/Minesweeper.sol:Minesweeper",
        "label": "nftContract",
        "offset": 0,
        "slot": "8",
        "type": "t_address"
      }
    ],
    "types": {
      "t_address": {
        "encoding": "inplace",
        "label": "address",
        "numberOfBytes": "20"
      },
      "t_array(t_address)dyn_storage": {
        "base": "t_address",
        "encoding": "dynamic_array",
        "label": "address[]",
        "numberOfBytes": "32"
      },
      "t_bool": {
        "encoding": "inplace",
        "label": "bool",
        "numberOfBytes": "1"
      },
      "t_bytes32": {
        "encoding": "inplace",
        "label": "bytes32",
        "numberOfBytes": "32"
      },
      "t_mapping(t_address,t_bool)": {
        "encoding": "mapping",
        "key": "t_address",
        "label": "mapping(address => bool)",
        "numberOfBytes": "32",
        "value": "t_bool"
      },
      "t_mapping(t_address,t_struct(Game)425_storage)": {
        "encoding": "mapping",
        "key": "t_address",
        "label": "mapping(address => struct Minesweeper.Game)",
        "numberOfBytes": "32",
        "value": "t_struct(Game)425_storage"
      },
      "t_mapping(t_address,t_struct(Session)436_storage)": {
        "encoding": "mapping",
        "key": "t_address",
        "label": "mapping(address => struct Minesweeper.Session)",
        "numberOfBytes": "32",
        "value": "t_struct(Session)436_storage"
      },
      "t_mapping(t_address,t_uint256)": {
        "encoding": "mapping",
        "key": "t_address",
        "label": "mapping(address => uint256)",
        "numberOfBytes": "32",
        "value": "t_uint256"
      },
      "t_struct(Game)425_storage": {
        "encoding": "inplace",
        "label": "struct Minesweeper.Game",
        "members": [
          {
            "astId": 404,
            "contract": "contracts/Minesweeper.sol:Minesweeper",
            "label": "boardHash",
            "offset": 0,
            "slot": "0",
            "type": "t_bytes32"
          },
          {
            "astId": 406,
            "contract": "contracts/Minesweeper.sol:Minesweeper",
            "label": "revealedMask",
            "offset": 0,
            "slot": "1",
            "type": "t_uint256"
          },
          {
            "astId": 408,
            "contract": "contracts/Minesweeper.sol:Minesweeper",
            "label": "startTime",
            "offset": 0,
            "slot": "2",
            "type": "t_uint256"
          },
          {
            "astId": 410,
            "contract": "contracts/Minesweeper.sol:Minesweeper",
            "label": "isOver",
            "offset": 0,
            "slot": "3",
            "type": "t_bool"
          },
          {
            "astId": 412,
            "contract": "contracts/Minesweeper.sol:Minesweeper",
            "label": "isStarted",
            "offset": 1,
            "slot": "3",
            "type": "t_bool"
          },
          {
            "astId": 414,
            "contract": "contracts/Minesweeper.sol:Minesweeper",
            "label": "score",
            "offset": 0,
            "slot": "4",
            "type": "t_uint256"
          },
          {
            "astId": 416,
            "contract": "contracts/Minesweeper.sol:Minesweeper",
            "label": "stateHash",
            "offset": 0,
            "slot": "5",
            "type": "t_bytes32"
          },
          {
            "astId": 418,
            "contract": "contracts/Minesweeper.sol:Minesweeper",
            "label": "moveCount",
            "offset": 0,
            "slot": "6",
            "type": "t_uint256"
          },
          {
            "astId": 420,
            "contract": "contracts/Minesweeper.sol:Minesweeper",
            "label": "mineCount",
            "offset": 0,
            "slot": "7",
            "type": "t_uint8"
          },
          {
            "astId": 422,
            "contract": "contracts/Minesweeper.sol:Minesweeper",
            "label": "startBlock",
            "offset": 0,
            "slot": "8",
            "type": "t_uint256"
          },
          {
            "astId": 424,
            "contract": "contracts/Minesweeper.sol:Minesweeper",
            "label": "hasWon",
            "offset": 0,
            "slot": "9",
            "type": "t_bool"
          }
        ],
        "numberOfBytes": "320"
      },
      "t_struct(Session)436_storage": {
        "encoding": "inplace",
        "label": "struct Minesweeper.Session",
        "members": [
          {
            "astId": 427,
            "contract": "contracts/Minesweeper.sol:Minesweeper",
            "label": "player",
            "offset": 0,
            "slot": "0",
            "type": "t_address"
          },
          {
            "astId": 429,
            "contract": "contracts/Minesweeper.sol:Minesweeper",
            "label": "expiryTime",
            "offset": 0,
            "slot": "1",
            "type": "t_uint256"
          },
          {
            "astId": 431,
            "contract": "contracts/Minesweeper.sol:Minesweeper",
            "label": "nonce",
            "offset": 0,
            "slot": "2",
            "type": "t_bytes32"
          },
          {
            "astId": 433,
            "contract": "contracts/Minesweeper.sol:Minesweeper",
            "label": "lastHash",
            "offset": 0,
            "slot": "3",
            "type": "t_bytes32"
          },
          {
            "astId": 435,
            "contract": "contracts/Minesweeper.sol:Minesweeper",
            "label": "lastActionTime",
            "offset": 0,
            "slot": "4",
            "type": "t_uint256"
          }
        ],
        "numberOfBytes": "160"
      },
      "t_uint256": {
        "encoding": "inplace",
        "label": "uint256",
        "numberOfBytes": "32"
      },
      "t_uint8": {
        "encoding": "inplace",
        "label": "uint8",
        "numberOfBytes": "1"
      }
    }
  }
}