{
  "address": "0xBD58A0Bed59C36cb270f3Da308a3b0d5bf36FfFb",
  "abi": [
    {
      "inputs": [],
      "stateMutability": "nonpayable",
      "type": "constructor"
    },
    {
      "inputs": [],
      "name": "EnforcedPause",
      "type": "error"
    },
    {
      "inputs": [],
      "name": "ExpectedPause",
      "type": "error"
    },
    {
      "inputs": [
        {
          "internalType": "address",
          "name": "owner",
          "type": "address"
        }
      ],
      "name": "OwnableInvalidOwner",
      "type": "error"
    },
    {
      "inputs": [
        {
          "internalType": "address",
          "name": "account",
          "type": "address"
        }
      ],
      "name": "OwnableUnauthorizedAccount",
      "type": "error"
    },
    {
      "inputs": [],
      "name": "ReentrancyGuardReentrantCall",
      "type": "error"
    },
    {
      "anonymous": false,
      "inputs": [
        {
          "indexed": true,
          "internalType": "address",
          "name": "player",
          "type": "address"
        },
        {
          "indexed": false,
          "internalType": "uint256",
          "name": "moveCount",
          "type": "uint256"
        },
        {
          "indexed": false,
          "internalType": "bytes32",
          "name": "stateHash",
          "type": "bytes32"
        }
      ],
      "name": "BatchMoveProcessed",
      "type": "event"
    },
    {
      "anonymous": false,
      "inputs": [
        {
          "indexed": true,
          "internalType": "address",
          "name": "player",
          "type": "address"
        },
        {
          "indexed": false,
          "internalType": "uint8",
          "name": "x",
          "type": "uint8"
        },
        {
          "indexed": false,
          "internalType": "uint8",
          "name": "y",
          "type": "uint8"
        },
        {
          "indexed": false,
          "internalType": "uint8",
          "name": "adjacentMines",
          "type": "uint8"
        },
        {
          "indexed": false,
          "internalType": "bytes32",
          "name": "stateHash",
          "type": "bytes32"
        },
        {
          "indexed": false,
          "internalType": "uint256",
          "name": "moveCount",
          "type": "uint256"
        }
      ],
      "name": "CellRevealed",
      "type": "event"
    },
    {
      "anonymous": false,
      "inputs": [
        {
          "indexed": true,
          "internalType": "address",
          "name": "player",
          "type": "address"
        },
        {
          "indexed": false,
          "internalType": "bool",
          "name": "won",
          "type": "bool"
        },
        {
          "indexed": false,
          "internalType": "uint256",
          "name": "score",
          "type": "uint256"
        },
        {
          "indexed": false,
          "internalType": "uint256",
          "name": "timeSpent",
          "type": "uint256"
        }
      ],
      "name": "GameOver",
      "type": "event"
    },
    {
      "anonymous": false,
      "inputs": [
        {
          "indexed": true,
          "internalType": "address",
          "name": "player",
          "type": "address"
        },
        {
          "indexed": false,
          "internalType": "bytes32",
          "name": "boardHash",
          "type": "bytes32"
        },
        {
          "indexed": false,
          "internalType": "uint8",
          "name": "mineCount",
          "type": "uint8"
        },
        {
          "indexed": false,
          "internalType": "uint256",
          "name": "timestamp",
          "type": "uint256"
        }
      ],
      "name": "GameStarted",
      "type": "event"
    },
    {
      "anonymous": false,
      "inputs": [
        {
          "indexed": true,
          "internalType": "address",
          "name": "player",
          "type": "address"
        },
        {
          "indexed": false,
          "internalType": "uint256",
          "name": "rank",
          "type": "uint256"
        },
        {
          "indexed": false,
          "internalType": "uint256",
          "name": "score",
          "type": "uint256"
        }
      ],
      "name": "NFTMintEligible",
      "type": "event"
    },
    {
      "anonymous": false,
      "inputs": [
        {
          "indexed": true,
          "internalType": "address",
          "name": "previousOwner",
          "type": "address"
        },
        {
          "indexed": true,
          "internalType": "address",
          "name": "newOwner",
          "type": "address"
        }
      ],
      "name": "OwnershipTransferred",
      "type": "event"
    },
    {
      "anonymous": false,
      "inputs": [
        {
          "indexed": false,
          "internalType": "address",
          "name": "account",
          "type": "address"
        }
      ],
      "name": "Paused",
      "type": "event"
    },
    {
      "anonymous": false,
      "inputs": [
        {
          "indexed": false,
          "internalType": "address",
          "name": "account",
          "type": "address"
        }
      ],
      "name": "Unpaused",
      "type": "event"
    },
    {
      "inputs": [],
      "name": "HEIGHT",
      "outputs": [
        {
          "internalType": "uint8",
          "name": "",
          "type": "uint8"
        }
      ],
      "stateMutability": "view",
      "type": "function"
    },
    {
      "inputs": [],
      "name": "MAX_GAS_PER_TX",
      "outputs": [
        {
          "internalType": "uint256",
          "name": "",
          "type": "uint256"
        }
      ],
      "stateMutability": "view",
      "type": "function"
    },
    {
      "inputs": [],
      "name": "WIDTH",
      "outputs": [
        {
          "internalType": "uint8",
          "name": "",
          "type": "uint8"
        }
      ],
      "stateMutability": "view",
      "type": "function"
    },
    {
      "inputs": [
        {
          "internalType": "address",
          "name": "",
          "type": "address"
        }
      ],
      "name": "games",
      "outputs": [
        {
          "internalType": "bytes32",
          "name": "boardHash",
          "type": "bytes32"
        },
        {
          "internalType": "uint256",
          "name": "revealedMask",
          "type": "uint256"
        },
        {
          "internalType": "uint256",
          "name": "startTime",
          "type": "uint256"
        },
        {
          "internalType": "bool",
          "name": "isOver",
          "type": "bool"
        },
        {
          "internalType": "bool",
          "name": "isStarted",
          "type": "bool"
        },
        {
          "internalType": "uint256",
          "name": "score",
          "type": "uint256"
        },
        {
          "internalType": "bytes32",
          "name": "stateHash",
          "type": "bytes32"
        },
        {
          "internalType": "uint256",
          "name": "moveCount",
          "type": "uint256"
        },
        {
          "internalType": "uint8",
          "name": "mineCount",
          "type": "uint8"
        },
        {
          "internalType": "uint256",
          "name": "startBlock",
          "type": "uint256"
        },
        {
          "internalType": "bool",
          "name": "hasWon",
          "type": "bool"
        }
      ],
      "stateMutability": "view",
      "type": "function"
    },
    {
      "inputs": [],
      "name": "getPlayers",
      "outputs": [
        {
          "internalType": "address[]",
          "name": "",
          "type": "address[]"
        }
      ],
      "stateMutability": "view",
      "type": "function"
    },
    {
      "inputs": [
        {
          "internalType": "address[]",
          "name": "_players",
          "type": "address[]"
        }
      ],
      "name": "getScores",
      "outputs": [
        {
          "internalType": "uint256[]",
          "name": "",
          "type": "uint256[]"
        }
      ],
      "stateMutability": "view",
      "type": "function"
    },
    {
      "inputs": [
        {
          "internalType": "address",
          "name": "",
          "type": "address"
        }
      ],
      "name": "highScores",
      "outputs": [
        {
          "internalType": "uint256",
          "name": "",
          "type": "uint256"
        }
      ],
      "stateMutability": "view",
      "type": "function"
    },
    {
      "inputs": [
        {
          "internalType": "address",
          "name": "",
          "type": "address"
        }
      ],
      "name": "isPlayer",
      "outputs": [
        {
          "internalType": "bool",
          "name": "",
          "type": "bool"
        }
      ],
      "stateMutability": "view",
      "type": "function"
    },
    {
      "inputs": [],
      "name": "nftContract",
      "outputs": [
        {
          "internalType": "address",
          "name": "",
          "type": "address"
        }
      ],
      "stateMutability": "view",
      "type": "function"
    },
    {
      "inputs": [],
      "name": "owner",
      "outputs": [
        {
          "internalType": "address",
          "name": "",
          "type": "address"
        }
      ],
      "stateMutability": "view",
      "type": "function"
    },
    {
      "inputs": [],
      "name": "pause",
      "outputs": [],
      "stateMutability": "nonpayable",
      "type": "function"
    },
    {
      "inputs": [],
      "name": "paused",
      "outputs": [
        {
          "internalType": "bool",
          "name": "",
          "type": "bool"
        }
      ],
      "stateMutability": "view",
      "type": "function"
    },
    {
      "inputs": [
        {
          "internalType": "uint256",
          "name": "",
          "type": "uint256"
        }
      ],
      "name": "players",
      "outputs": [
        {
          "internalType": "address",
          "name": "",
          "type": "address"
        }
      ],
      "stateMutability": "view",
      "type": "function"
    },
    {
      "inputs": [
        {
          "components": [
            {
              "internalType": "uint8",
              "name": "x",
              "type": "uint8"
            },
            {
              "internalType": "uint8",
              "name": "y",
              "type": "uint8"
            }
          ],
          "internalType": "struct Minesweeper.Move[]",
          "name": "moves",
          "type": "tuple[]"
        }
      ],
      "name": "processBatchMoves",
      "outputs": [],
      "stateMutability": "nonpayable",
      "type": "function"
    },
    {
      "inputs": [],
      "name": "renounceOwnership",
      "outputs": [],
      "stateMutability": "nonpayable",
      "type": "function"
    },
    {
      "inputs": [
        {
          "internalType": "address",
          "name": "_nftContract",
          "type": "address"
        }
      ],
      "name": "setNFTContract",
      "outputs": [],
      "stateMutability": "nonpayable",
      "type": "function"
    },
    {
      "inputs": [
        {
          "internalType": "bytes32",
          "name": "salt",
          "type": "bytes32"
        }
      ],
      "name": "startNewGame",
      "outputs": [],
      "stateMutability": "nonpayable",
      "type": "function"
    },
    {
      "inputs": [
        {
          "internalType": "address",
          "name": "newOwner",
          "type": "address"
        }
      ],
      "name": "transferOwnership",
      "outputs": [],
      "stateMutability": "nonpayable",
      "type": "function"
    },
    {
      "inputs": [],
      "name": "unpause",
      "outputs": [],
      "stateMutability": "nonpayable",
      "type": "function"
    },
    {
      "inputs": [],
      "name": "withdraw",
      "outputs": [],
      "stateMutability": "nonpayable",
      "type": "function"
    },
    {
      "stateMutability": "payable",
      "type": "receive"
    }
  ],
  "transactionHash": "0x279e0fcbceaa4abdc1516016c9d28b38bbcaa88efa1efc80bfb0d7f457d1bae0",
  "args": [],
  "numDeployments": 3,
  "solcInputHash": "8d13cd49f3b17c6151fa9eb1237ad686",
  "bytecode": "0x608060405234801561001057600080fd5b5060016000819055805460ff19169055338061004657604051631e4fbdf760e01b81526000600482015260240160405180910390fd5b61004f81610055565b506100af565b600180546001600160a01b03838116610100818102610100600160a81b031985161790945560405193909204169182907f8be0079c531659141344cd1fd0a4f28419497f9722a3daafe3b4186f6b6457e090600090a35050565b611d14806100be6000396000f3fe6080604052600436106101225760003560e01c80638b5b9ccc116100a0578063d876674911610064578063d876674914610440578063f2fde38b14610457578063f6c97ed114610477578063f71d96cb146104a4578063ff5e2186146104c457600080fd5b80638b5b9ccc146103a75780638da5cb5b146103c9578063a7ccabdf14610400578063d44d339414610266578063d56d229d1461042057600080fd5b806369ea80d5116100e757806369ea80d5146102665780636a47ab991461028d578063715018a6146102ad57806379131a19146102c25780638456cb591461039257600080fd5b8062d8e104146101a457806309c95e10146101e45780633ccfd60b146102245780633f4ba83a146102395780635c975abb1461024e57600080fd5b3661019f5760015461010090046001600160a01b03166001600160a01b0316336001600160a01b03161461019d5760405162461bcd60e51b815260206004820181905260248201527f4f6e6c79206f776e65722063616e2073656e6420455448206469726563746c7960448201526064015b60405180910390fd5b005b600080fd5b3480156101b057600080fd5b506101d16101bf366004611967565b60036020526000908152604090205481565b6040519081526020015b60405180910390f35b3480156101f057600080fd5b506102146101ff366004611967565b60056020526000908152604090205460ff1681565b60405190151581526020016101db565b34801561023057600080fd5b5061019d6104e4565b34801561024557600080fd5b5061019d61058b565b34801561025a57600080fd5b5060015460ff16610214565b34801561027257600080fd5b5061027b601081565b60405160ff90911681526020016101db565b34801561029957600080fd5b5061019d6102a8366004611990565b61059d565b3480156102b957600080fd5b5061019d6108ad565b3480156102ce57600080fd5b5061033a6102dd366004611967565b60026020819052600091825260409091208054600182015492820154600383015460048401546005850154600686015460078701546008880154600990980154969897959660ff808716976101009097048116969281169291168b565b604080519b8c5260208c019a909a52988a01979097529415156060890152921515608088015260a087019190915260c086015260e085015260ff166101008401526101208301521515610140820152610160016101db565b34801561039e57600080fd5b5061019d6108bf565b3480156103b357600080fd5b506103bc6108cf565b6040516101db9190611a05565b3480156103d557600080fd5b5060015461010090046001600160a01b03165b6040516001600160a01b0390911681526020016101db565b34801561040c57600080fd5b5061019d61041b366004611967565b610931565b34801561042c57600080fd5b506006546103e8906001600160a01b031681565b34801561044c57600080fd5b506101d16207a12081565b34801561046357600080fd5b5061019d610472366004611967565b61095b565b34801561048357600080fd5b50610497610492366004611a52565b610996565b6040516101db9190611ab5565b3480156104b057600080fd5b506103e86104bf366004611aed565b610a6f565b3480156104d057600080fd5b5061019d6104df366004611aed565b610a99565b6104ec610c91565b60015460405160009161010090046001600160a01b03169047908381818185875af1925050503d806000811461053e576040519150601f19603f3d011682016040523d82523d6000602084013e610543565b606091505b50509050806105885760405162461bcd60e51b815260206004820152601160248201527015da5d1a191c985dd85b0819985a5b1959607a1b6044820152606401610194565b50565b610593610c91565b61059b610cc4565b565b6105a5610d16565b6105ad610d3a565b806105ee5760405162461bcd60e51b8152602060048201526011602482015270139bc81b5bdd995cc81c1c9bdd9a591959607a1b6044820152606401610194565b60148111156106315760405162461bcd60e51b815260206004820152600f60248201526e426174636820746f6f206c6172676560881b6044820152606401610194565b60008167ffffffffffffffff81111561064c5761064c611b06565b604051908082528060200260200182016040528015610675578160200160208202803683370190505b50905060008267ffffffffffffffff81111561069357610693611b06565b6040519080825280602002602001820160405280156106bc578160200160208202803683370190505b50905060005b83811015610778578484828181106106dc576106dc611b1c565b6106f29260206040909202019081019150611b32565b83828151811061070457610704611b1c565b602002602001019060ff16908160ff168152505084848281811061072a5761072a611b1c565b90506040020160200160208101906107429190611b32565b82828151811061075457610754611b1c565b60ff909216602092830291909101909101528061077081611b6b565b9150506106c2565b50336000908152600260205260409020600381015460ff16156107cc5760405162461bcd60e51b815260206004820152600c60248201526b23b0b6b29034b99037bb32b960a11b6044820152606401610194565b60005b8481101561085057610832338787848181106107ed576107ed611b1c565b6108039260206040909202019081019150611b32565b88888581811061081557610815611b1c565b905060400201602001602081019061082d9190611b32565b610d64565b600382015460ff16610850578061084881611b6b565b9150506107cf565b506006810154600582015460405133927ffecbea6c66afe05229d10d8a4cca8f23bf4339a5bda344e293effcf41d8582cb9261089492918252602082015260400190565b60405180910390a25050506108a96001600055565b5050565b6108b5610c91565b61059b6000610f8e565b6108c7610c91565b61059b610fe8565b6060600480548060200260200160405190810160405280929190818152602001828054801561092757602002820191906000526020600020905b81546001600160a01b03168152600190910190602001808311610909575b5050505050905090565b610939610c91565b600680546001600160a01b0319166001600160a01b0392909216919091179055565b610963610c91565b6001600160a01b03811661098d57604051631e4fbdf760e01b815260006004820152602401610194565b61058881610f8e565b606060008267ffffffffffffffff8111156109b3576109b3611b06565b6040519080825280602002602001820160405280156109dc578160200160208202803683370190505b50905060005b83811015610a655760036000868684818110610a0057610a00611b1c565b9050602002016020810190610a159190611967565b6001600160a01b03166001600160a01b0316815260200190815260200160002054828281518110610a4857610a48611b1c565b602090810291909101015280610a5d81611b6b565b9150506109e2565b5090505b92915050565b60048181548110610a7f57600080fd5b6000918252602090912001546001600160a01b0316905081565b610aa1610d16565b6040805142602080830191909152438284015244606083015260808083018590528351808403909101815260a090920190925280519101206000610ae482611023565b90506040518061016001604052808381526020016000815260200142815260200160001515815260200160011515815260200160008152602001838152602001600081526020018260ff1681526020014381526020016000151581525060026000336001600160a01b03166001600160a01b0316815260200190815260200160002060008201518160000155602082015181600101556040820151816002015560608201518160030160006101000a81548160ff02191690831515021790555060808201518160030160016101000a81548160ff02191690831515021790555060a0820151816004015560c0820151816005015560e082015181600601556101008201518160070160006101000a81548160ff021916908360ff16021790555061012082015181600801556101408201518160090160006101000a81548160ff021916908315150217905550905050336001600160a01b03167f2b53767824e6e45390f22ddad635f4ce1603ec6e4a01c66384b8b024ed4cb21c838342604051610c849392919092835260ff919091166020830152604082015260600190565b60405180910390a2505050565b6001546001600160a01b0361010090910416331461059b5760405163118cdaa760e01b8152336004820152602401610194565b610ccc61108d565b6001805460ff191690557f5db9ee0a495bf2e6ff9c91a7834c1ba4fdd244a5e8aa4e537bd38aeae4b073aa335b6040516001600160a01b03909116815260200160405180910390a1565b60015460ff161561059b5760405163d93c066560e01b815260040160405180910390fd5b600260005403610d5d57604051633ee5aeb560e01b815260040160405180910390fd5b6002600055565b6001600160a01b0383166000908152600260205260409020600381015460ff1615610dc05760405162461bcd60e51b815260206004820152600c60248201526b23b0b6b29034b99037bb32b960a11b6044820152606401610194565b601060ff8416108015610dd65750601060ff8316105b610e185760405162461bcd60e51b8152602060048201526013602482015272496e76616c696420636f6f7264696e6174657360681b6044820152606401610194565b610e238184846110b0565b610e2c8161126b565b15610f885760038101805460098301805460ff1916600190811790915561ffff19909116179055610e5c81611359565b600482018190556001600160a01b0385166000908152600360205260409020541015610f255760048101546001600160a01b03851660009081526003602090815260408083209390935560059052205460ff16610f17576004805460018082019092557f8a35acfbc15ff81a39ae7d344fd709f28e8600b4aa8c65c6b64bfe7fe36bd19b0180546001600160a01b0319166001600160a01b0387169081179091556000908152600560205260409020805460ff191690911790555b610f25848260040154611406565b836001600160a01b03167fcf6989f889acf97d11e9f4362a12d67538c2372e5260383f66450fbd27d4424b60018360040154846002015442610f679190611b84565b60408051931515845260208401929092529082015260600160405180910390a25b50505050565b600180546001600160a01b03838116610100818102610100600160a81b031985161790945560405193909204169182907f8be0079c531659141344cd1fd0a4f28419497f9722a3daafe3b4186f6b6457e090600090a35050565b610ff0610d16565b6001805460ff1916811790557f62e78cea01bee320cd4e420270b5ea74000d11b0c9f74754ebdbfc544b05a25833610cf9565b600080805b601060ff821610156110865760005b601060ff821610156110735761104e858383611526565b15611061578261105d81611b97565b9350505b8061106b81611b97565b915050611037565b508061107e81611b97565b915050611028565b5092915050565b60015460ff1661059b57604051638dfc202b60e01b815260040160405180910390fd5b600060ff808416906110c6906010908516611bb6565b6110d09190611bcd565b600185810154919250821b16156110e75750505050565b60006110f48585856115a0565b905080611102575050505050565b6000195b60018160000b13611263576000195b60018160000b13611250578160000b600014801561113657508060000b6000145b61123e5760008260000b12801561115a575060ff861661115583611be0565b60ff16115b61123e5760008160000b12801561117e575060ff851661117982611be0565b60ff16115b61123e5760008260000b1380156111a5575061119b826010611bfe565b60ff168660ff1610155b61123e5760008160000b1380156111cc57506111c2816010611bfe565b60ff168560ff1610155b61123e576000808360000b126111eb576111e68388611c17565b6111fe565b6111f483611be0565b6111fe9088611bfe565b90506000808360000b1261121b576112168388611c17565b61122e565b61122483611be0565b61122e9088611bfe565b905061123b8983836110b0565b50505b8061124881611c30565b915050611115565b508061125b81611c30565b915050611106565b505050505050565b60018101546000908161128767ffffffffffffffff831661178e565b905060006112a2604084901c67ffffffffffffffff1661178e565b905060006112bd608085901c67ffffffffffffffff1661178e565b905060006112ce60c086901c61178e565b9050600081836112de8688611bcd565b6112e89190611bcd565b6112f29190611bcd565b90506113236040518060400160405280600d81526020016c1c995d99585b195910dbdd5b9d609a1b8152508261181a565b6000611330601080611bb6565b60078a01549091506000906113489060ff1683611b84565b929092149998505050505050505050565b60008082600201544261136c9190611b84565b9050606461012c8210156113a2576113868261012c611b84565b611391906002611bb6565b61139b9082611bcd565b90506113ff565b6101688210156113c3576113b882610168611b84565b611391906001611bb6565b610168821180156113d557506101ca82105b156113fb576113e661016883611b84565b6113f1906001611bb6565b61139b9082611b84565b5060015b9392505050565b600160005b6004548110156114785782600360006004848154811061142d5761142d611b1c565b60009182526020808320909101546001600160a01b031683528201929092526040019020541115611466578161146281611b6b565b9250505b8061147081611b6b565b91505061140b565b50600a811161152157600654604051631c0ef40760e31b81526001600160a01b0385811660048301529091169063e077a03890602401600060405180830381600087803b1580156114c857600080fd5b505af11580156114dc573d6000803e3d6000fd5b505060408051848152602081018690526001600160a01b03871693507f27da45e92227e0d8e0b261c010c5e0356f533df255822fa0778386e090b70a60925001610c84565b505050565b6000808484846040516020016115609392919092835260f891821b6001600160f81b03199081166020850152911b16602182015260220190565b60408051601f19818403018152919052805160209091012090506000611587601080611bb6565b905060286115958284611c46565b109695505050505050565b60008060ff808516906115b7906010908616611bb6565b6115c19190611bcd565b905061010081106116095760405162461bcd60e51b815260206004820152601260248201527142697420696e646578206f766572666c6f7760701b6044820152606401610194565b60018581015490821b16156116225760009150506113ff565b6001858101805491831b909117905560068501805490600061164383611b6b565b90915550508454611655908585611526565b61171057600061166a8660000154868661185f565b6001870154600688015460405192935061168f92602001918252602082015260400190565b60408051601f19818403018152828252805160209182012060058a0181905560068a015460ff8a811686528981169386019390935291851684840152606084015260808301525133917ffc9760811016935f98fe7f4b510639a8adfd1df7d6e5fcee0c0ac37b76c8605e919081900360a00190a260ff161591506113ff9050565b60038501805460098701805460ff1916905561ffff19166001179055600285015433907fcf6989f889acf97d11e9f4362a12d67538c2372e5260383f66450fbd27d4424b9060009081906117649042611b84565b60408051931515845260208401929092529082015260600160405180910390a260009150506113ff565b60006117a8675555555555555555600184901c1683611b84565b91506117c5673333333333333333600284901c8116908416611bcd565b91506117d5600483901c83611bcd565b670f0f0f0f0f0f0f0f169150600882901c826117f19190611bcd565b9150611801601083901c83611bcd565b9150611811602083901c83611bcd565b607f1692915050565b6108a98282604051602401611830929190611c68565b60408051601f198184030181529190526020810180516001600160e01b0316632d839cb360e21b179052611942565b6000806000195b60018160000b13611939576000195b60018160000b13611926578160000b600014801561189657508060000b6000145b6119145760006118a68388611cbd565b905060006118b48388611cbd565b905060008260000b121580156118ce57506010600083900b125b80156118de575060008160000b12155b80156118ee57506010600082900b125b15611911576118fe898383611526565b15611911578461190d81611b97565b9550505b50505b8061191e81611c30565b915050611875565b508061193181611c30565b915050611866565b50949350505050565b6105888160006a636f6e736f6c652e6c6f679050600080835160208501845afa505050565b60006020828403121561197957600080fd5b81356001600160a01b03811681146113ff57600080fd5b600080602083850312156119a357600080fd5b823567ffffffffffffffff808211156119bb57600080fd5b818501915085601f8301126119cf57600080fd5b8135818111156119de57600080fd5b8660208260061b85010111156119f357600080fd5b60209290920196919550909350505050565b6020808252825182820181905260009190848201906040850190845b81811015611a465783516001600160a01b031683529284019291840191600101611a21565b50909695505050505050565b60008060208385031215611a6557600080fd5b823567ffffffffffffffff80821115611a7d57600080fd5b818501915085601f830112611a9157600080fd5b813581811115611aa057600080fd5b8660208260051b85010111156119f357600080fd5b6020808252825182820181905260009190848201906040850190845b81811015611a4657835183529284019291840191600101611ad1565b600060208284031215611aff57600080fd5b5035919050565b634e487b7160e01b600052604160045260246000fd5b634e487b7160e01b600052603260045260246000fd5b600060208284031215611b4457600080fd5b813560ff811681146113ff57600080fd5b634e487b7160e01b600052601160045260246000fd5b600060018201611b7d57611b7d611b55565b5060010190565b81810381811115610a6957610a69611b55565b600060ff821660ff8103611bad57611bad611b55565b60010192915050565b8082028115828204841417610a6957610a69611b55565b80820180821115610a6957610a69611b55565b600081810b60808101611bf557611bf5611b55565b60000392915050565b60ff8281168282160390811115610a6957610a69611b55565b60ff8181168382160190811115610a6957610a69611b55565b60008160000b607f8103611bad57611bad611b55565b600082611c6357634e487b7160e01b600052601260045260246000fd5b500690565b604081526000835180604084015260005b81811015611c965760208187018101516060868401015201611c79565b506000606082850101526060601f19601f8301168401019150508260208301529392505050565b600081810b9083900b01607f8113607f1982121715610a6957610a69611b5556fea264697066735822122051235e78574136272836b3ed29327fa8283e758acabd05c3ea9529e13d740fc264736f6c63430008140033",
  "devdoc": {
    "errors": {
      "EnforcedPause()": [
        {
          "details": "The operation failed because the contract is paused."
        }
      ],
      "ExpectedPause()": [
        {
          "details": "The operation failed because the contract is not paused."
        }
      ],
      "OwnableInvalidOwner(address)": [
        {
          "details": "The owner is not a valid owner account. (eg. `address(0)`)"
        }
      ],
      "OwnableUnauthorizedAccount(address)": [
        {
          "details": "The caller account is not authorized to perform an operation."
        }
      ],
      "ReentrancyGuardReentrantCall()": [
        {
          "details": "Unauthorized reentrant call."
        }
      ]
    },
    "events": {
      "Paused(address)": {
        "details": "Emitted when the pause is triggered by `account`."
      },
      "Unpaused(address)": {
        "details": "Emitted when the pause is lifted by `account`."
      }
    },
    "kind": "dev",
    "methods": {
      "owner()": {
        "details": "Returns the address of the current owner."
      },
      "paused()": {
        "details": "Returns true if the contract is paused, and false otherwise."
      },
      "renounceOwnership()": {
        "details": "Leaves the contract without owner. It will not be possible to call `onlyOwner` functions. Can only be called by the current owner. NOTE: Renouncing ownership will leave the contract without an owner, thereby disabling any functionality that is only available to the owner."
      },
      "transferOwnership(address)": {
        "details": "Transfers ownership of the contract to a new account (`newOwner`). Can only be called by the current owner."
      }
    },
    "version": 1
  },
  "userdoc": {
    "kind": "user",
    "methods": {},
    "version": 1
  },
  "storageLayout": {
    "storage": [
      {
        "astId": 305,
        "contract": "contracts/Minesweeper.sol:Minesweeper",
        "label": "_status",
        "offset": 0,
        "slot": "0",
        "type": "t_uint256"
      },
      {
        "astId": 186,
        "contract": "contracts/Minesweeper.sol:Minesweeper",
        "label": "_paused",
        "offset": 0,
        "slot": "1",
        "type": "t_bool"
      },
      {
        "astId": 8,
        "contract": "contracts/Minesweeper.sol:Minesweeper",
        "label": "_owner",
        "offset": 1,
        "slot": "1",
        "type": "t_address"
      },
      {
        "astId": 427,
        "contract": "contracts/Minesweeper.sol:Minesweeper",
        "label": "games",
        "offset": 0,
        "slot": "2",
        "type": "t_mapping(t_address,t_struct(Game)422_storage)"
      },
      {
        "astId": 431,
        "contract": "contracts/Minesweeper.sol:Minesweeper",
        "label": "highScores",
        "offset": 0,
        "slot": "3",
        "type": "t_mapping(t_address,t_uint256)"
      },
      {
        "astId": 434,
        "contract": "contracts/Minesweeper.sol:Minesweeper",
        "label": "players",
        "offset": 0,
        "slot": "4",
        "type": "t_array(t_address)dyn_storage"
      },
      {
        "astId": 438,
        "contract": "contracts/Minesweeper.sol:Minesweeper",
        "label": "isPlayer",
        "offset": 0,
        "slot": "5",
        "type": "t_mapping(t_address,t_bool)"
      },
      {
        "astId": 490,
        "contract": "contracts/Minesweeper.sol:Minesweeper",
        "label": "nftContract",
        "offset": 0,
        "slot": "6",
        "type": "t_address"
      }
    ],
    "types": {
      "t_address": {
        "encoding": "inplace",
        "label": "address",
        "numberOfBytes": "20"
      },
      "t_array(t_address)dyn_storage": {
        "base": "t_address",
        "encoding": "dynamic_array",
        "label": "address[]",
        "numberOfBytes": "32"
      },
      "t_bool": {
        "encoding": "inplace",
        "label": "bool",
        "numberOfBytes": "1"
      },
      "t_bytes32": {
        "encoding": "inplace",
        "label": "bytes32",
        "numberOfBytes": "32"
      },
      "t_mapping(t_address,t_bool)": {
        "encoding": "mapping",
        "key": "t_address",
        "label": "mapping(address => bool)",
        "numberOfBytes": "32",
        "value": "t_bool"
      },
      "t_mapping(t_address,t_struct(Game)422_storage)": {
        "encoding": "mapping",
        "key": "t_address",
        "label": "mapping(address => struct Minesweeper.Game)",
        "numberOfBytes": "32",
        "value": "t_struct(Game)422_storage"
      },
      "t_mapping(t_address,t_uint256)": {
        "encoding": "mapping",
        "key": "t_address",
        "label": "mapping(address => uint256)",
        "numberOfBytes": "32",
        "value": "t_uint256"
      },
      "t_struct(Game)422_storage": {
        "encoding": "inplace",
        "label": "struct Minesweeper.Game",
        "members": [
          {
            "astId": 401,
            "contract": "contracts/Minesweeper.sol:Minesweeper",
            "label": "boardHash",
            "offset": 0,
            "slot": "0",
            "type": "t_bytes32"
          },
          {
            "astId": 403,
            "contract": "contracts/Minesweeper.sol:Minesweeper",
            "label": "revealedMask",
            "offset": 0,
            "slot": "1",
            "type": "t_uint256"
          },
          {
            "astId": 405,
            "contract": "contracts/Minesweeper.sol:Minesweeper",
            "label": "startTime",
            "offset": 0,
            "slot": "2",
            "type": "t_uint256"
          },
          {
            "astId": 407,
            "contract": "contracts/Minesweeper.sol:Minesweeper",
            "label": "isOver",
            "offset": 0,
            "slot": "3",
            "type": "t_bool"
          },
          {
            "astId": 409,
            "contract": "contracts/Minesweeper.sol:Minesweeper",
            "label": "isStarted",
            "offset": 1,
            "slot": "3",
            "type": "t_bool"
          },
          {
            "astId": 411,
            "contract": "contracts/Minesweeper.sol:Minesweeper",
            "label": "score",
            "offset": 0,
            "slot": "4",
            "type": "t_uint256"
          },
          {
            "astId": 413,
            "contract": "contracts/Minesweeper.sol:Minesweeper",
            "label": "stateHash",
            "offset": 0,
            "slot": "5",
            "type": "t_bytes32"
          },
          {
            "astId": 415,
            "contract": "contracts/Minesweeper.sol:Minesweeper",
            "label": "moveCount",
            "offset": 0,
            "slot": "6",
            "type": "t_uint256"
          },
          {
            "astId": 417,
            "contract": "contracts/Minesweeper.sol:Minesweeper",
            "label": "mineCount",
            "offset": 0,
            "slot": "7",
            "type": "t_uint8"
          },
          {
            "astId": 419,
            "contract": "contracts/Minesweeper.sol:Minesweeper",
            "label": "startBlock",
            "offset": 0,
            "slot": "8",
            "type": "t_uint256"
          },
          {
            "astId": 421,
            "contract": "contracts/Minesweeper.sol:Minesweeper",
            "label": "hasWon",
            "offset": 0,
            "slot": "9",
            "type": "t_bool"
          }
        ],
        "numberOfBytes": "320"
      },
      "t_uint256": {
        "encoding": "inplace",
        "label": "uint256",
        "numberOfBytes": "32"
      },
      "t_uint8": {
        "encoding": "inplace",
        "label": "uint8",
        "numberOfBytes": "1"
      }
    }
  }
}